:020000040800F2
:1000000000000220C15C0008115D0008115D0008BD
:10001000115D0008115D0008115D0008000000007E
:10002000000000000000000000000000610B00085C
:10003000115D000800000000DD0D0008470E0008FB
:10004000115D0008115D0008115D0008115D0008D8
:10005000115D0008115D0008115D0008115D0008C8
:10006000115D0008115D0008115D0008115D0008B8
:10007000115D0008115D0008115D0008115D0008A8
:10008000115D0008115D0008115D0008000000000E
:10009000000000000000000000000000115D0008EA
:1000A000115D0008115D0008115D0008115D000878
:1000B000115D0008115D0008115D0008115D000868
:1000C000115D0008115D0008115D0008115D000858
:1000D000115D0008115D0008115D000800000000BE
:1000E000115D0008115D0008115D000800000000AE
:1000F000000000000000000000000000115D00088A
:1001000000000000115D0008115D0008115D00088D
:1001100000000000000000000000000000000000DF
:10012000115D0008115D0008115D0008115D0008F7
:10013000115D000800000000000000000000000049
:10014000000000000000000000000000115D000839
:10015000115D0008115D0008115D0008115D0008C7
:10016000115D0008115D00080000000000000000A3
:10017000000000000000000000000000000000007F
:1001800000000000115D00080000000000000000F9
:08019000115D0008115D00087B
:1001A00010B5054C237833B9044B13B10448AFF3B1
:1001B00000800123237010BD3404002000000000E3
:1001C000E05E000808B5034B1BB103490348AFF3D9
:1001D000008008BD0000000038040020E05E000838
:1001E00080B58AB000AF78600023FB6103F038F877
:1001F000554B1B68002B01D100F05BF97B68002B8D
:1002000012D008227B6803F00703D31A0833BB61BE
:10021000BB69DB437A689A4204D87A68BB691344A5
:100220007B6001E000237B607B68002B70DB7B68D8
:10023000002B6DD0454B1B687A689A4268D8444BB6
:100240003B62434B1B687B6204E07B6A3B627B6AD8
:100250001B687B627B6A5B687A689A4203D97B6A17
:100260001B68002BF1D1384B1B687A6A9A424FD039
:100270003B6A1B6808221344FB617B6A1A683B6A6D
:100280001A607B6A5A687B68D21A08235B009A421C
:100290001FD97A6A7B6813447B617B6903F007038B
:1002A000002B0AD04FF0500383F31188BFF36F8FF8
:1002B000BFF34F8F3B6100BFFEE77B6A5A687B68E4
:1002C000D21A7B695A607B6A7A685A60786900F052
:1002D0004DF91E4B1A687B6A5B68D31A1B4A136080
:1002E0001A4B1A681B4B1B689A4203D2174B1B68A8
:1002F000184A13607B6A5B6843F000427B6A5A606D
:100300007B6A00221A60144B1B680133124A136087
:1003100002F0B4FFFB69002B01D100F0F2FAFB6997
:1003200003F00703002B0AD04FF0500383F311882A
:10033000BFF36F8FBFF34F8FFB6000BFFEE7FB691A
:1003400018462837BD4680BD583001205C3001205A
:1003500050300120603001206430012080B586B02B
:1003600000AF78607B687B617B68002B49D00823F5
:100370005B427A6913447B617B693B613B695B68E3
:10038000002B0ADB4FF0500383F31188BFF36F8F0C
:10039000BFF34F8FFB6000BFFEE73B691B68002B7C
:1003A0000AD04FF0500383F31188BFF36F8FBFF370
:1003B0004F8FBB6000BFFEE73B695B68DB0F03F05C
:1003C0000103DBB2002B1CD03B691B68002B18D14A
:1003D0003B695B6823F000423B695A6002F040FFD2
:1003E0003B695A68094B1B681344084A1360386913
:1003F00000F0BCF8064B1B680133054A136002F09D
:100400003DFF00BF1837BD4680BD00BF5C300120F6
:100410006830012080B400AF034B1B681846BD460E
:100420005DF8047B704700BF5C30012080B400AFF2
:10043000034B1B681846BD465DF8047B704700BF40
:100440006030012080B400AF00BFBD465DF8047B82
:10045000704780B584B000AF786039600023FB60DE
:100460007B68002B09D04FF0FF327B68B2FBF3F3BF
:100470003A689A4201D9012300E00023002B13D1EE
:100480007B683A6802FB03F31846FFF7A9FEF860A1
:10049000FB68002B08D07B683A6802FB03F31A461E
:1004A0000021F86805F05AFCFB6818461037BD4675
:1004B00080BD80B485B000AF4FF49633BB60264B4F
:1004C000FB60FB6803F00703002B0CD0FB680733CD
:1004D000FB60FB6823F00703FB60BA68FB68D31A74
:1004E0001D4A1344BB60FB687B601C4A7B68136039
:1004F0001A4B00225A607B68BA681344FB600822DA
:10050000FB689B1AFB60FB6823F00703FB60FB683A
:10051000134A1360124B1B6800225A60104B1B6871
:1005200000221A607B683B603B68FA68D21A3B681D
:100530005A600B4B1A683B681A603B685B68094A53
:1005400013603B685B68084A136000BF1437BD4600
:100550005DF8047B704700BF50040020503001203C
:1005600058300120603001205C30012080B485B01B
:1005700000AF7860284BFB6002E0FB681B68FB6003
:10058000FB681B687A689A42F7D8FB68BB60FB6817
:100590005B68BA6813447A689A4208D1FB685A6863
:1005A0007B685B681A44FB685A60FB687B607B6809
:1005B000BB607B685B68BA681A44FB681B689A4238
:1005C00018D1FB681A68154B1B689A420DD07B68DE
:1005D0005A68FB681B685B681A447B685A60FB6852
:1005E0001B681A687B681A6008E00C4B1A687B6805
:1005F0001A6003E0FB681A687B681A60FA687B6817
:100600009A4202D0FB687A681A6000BF1437BD4670
:100610005DF8047B704700BF503001205830012046
:1006200080B586B000AF786000233B610023FB609B
:100630004FF0FF33BB6002F013FE224B1B687B615F
:100640007B69002B1BD015E03B6901333B617B6963
:100650005B68FA689A4202D27B695B68FB607B69DF
:100660005B68BA689A4202D97B695B68BB607B6948
:100670001B687B61144B1B687A699A42E4D102F0D3
:10068000FDFD7B68FA685A607B68BA689A607B688F
:100690003A69DA6000F048FB0C4B1A687B681A6014
:1006A0000B4B1A687B685A610A4B1A687B689A611F
:1006B000094B1A687B681A6100F066FB00BF1837A7
:1006C000BD4680BD50300120583001205C300120F3
:1006D00064300120683001206030012080B483B094
:1006E00000AF78607B6803F108027B685A607B6822
:1006F0004FF0FF329A607B6803F108027B68DA6092
:100700007B6803F108027B681A617B6800221A602B
:1007100000BF0C37BD465DF8047B704780B483B0E2
:1007200000AF78607B6800221A6100BF0C37BD46BD
:100730005DF8047B704780B485B000AF78603960A5
:100740007B685B68FB603B68FA685A60FB689A6884
:100750003B689A60FB689B683A685A60FB683A6835
:100760009A603B687A681A617B681B685A1C7B68D0
:100770001A6000BF1437BD465DF8047B704780B433
:1007800085B000AF786039603B681B68BB60BB68B0
:10079000B3F1FF3F03D17B681B69FB600CE07B6812
:1007A0000833FB6002E0FB685B68FB60FB685B682A
:1007B0001B68BA689A42F6D2FB685A683B685A606E
:1007C0003B685B683A689A603B68FA689A60FB68C5
:1007D0003A685A603B687A681A617B681B685A1CE1
:1007E0007B681A6000BF1437BD465DF8047B704714
:1007F00080B485B000AF78607B681B69FB607B6864
:100800005B687A6892689A607B689B687A685268CD
:100810005A60FB685B687A689A4203D17B689A6881
:10082000FB685A607B6800221A61FB681B685A1ECD
:10083000FB681A60FB681B6818461437BD465DF8F4
:10084000047B704780B485B000AF124BFB60FB683F
:100850001B6843F00802FB681A600F4BBB600F4B2C
:100860007B60BB681B6823F07F42BB681A60BB6873
:100870001B6843F0AA42BB681A607B681B6823F4BC
:1008800070427B681A6000BF1437BD465DF8047B78
:10089000704700BF30380240000C0240040C024098
:1008A00080B485B000AF03460A46FB711346BB71A6
:1008B0000F4BFB60BB79012B09D1FB681B68FA79F0
:1008C000012101FA02F21A43FB681A6009E0FB6891
:1008D0001B68FA79012101FA02F2D2431A40FB683F
:1008E0001A6000BF1437BD465DF8047B704700BF37
:1008F000140C024080B400AF00BFBD465DF8047B1D
:10090000704780B400AF00BFBD465DF8047B704700
:1009100080B485B000AFF860B9607A6000BF14376A
:10092000BD465DF8047B704780B400AF00BFBD4694
:100930005DF8047B704780B483B000AF78603960A5
:1009400000BF0C37BD465DF8047B704780B400AF34
:1009500000BFBD465DF8047B704780B400AF00BFA8
:10096000BD465DF8047B704780B500AF01210C20C7
:10097000FFF796FF40F2DC5002F04CF800210C200B
:10098000FFF78EFF40F2DC5002F044F8EEE780B54E
:1009900000AF01210D20FFF783FF4FF47A7002F0C2
:1009A00039F800210D20FFF77BFF4FF47A7002F039
:1009B00031F8EEE780B500AF01210E20FFF770FFA0
:1009C0004FF4966002F026F800210E20FFF768FF32
:1009D0004FF4966002F01EF8EEE780B500AF0121FB
:1009E0000F20FFF75DFF40F2A46002F013F8002132
:1009F0000F20FFF755FF40F2A46002F00BF8EEE77E
:100A000080B582B002AFFFF71DFF174B01930123A2
:100A1000009300234FF400721449154801F07EFD45
:100A2000144B01930223009300234FF400721249E8
:100A3000124801F073FD124B01930323009300232E
:100A40004FF400720F49104801F068FD0F4B0193FD
:100A50000423009300234FF400720D490D4801F068
:100A60005DFD02F093FBFEE76C300120F85E0008AC
:100A70006909000870300120005F00088F09000834
:100A800074300120085F0008B509000878300120A3
:100A9000105F0008DB0900080000000000000000F3
:100AA00080B485B000AFF860B9607A60FB68043B41
:100AB000FB60FB684FF080721A60FB68043BFB60D0
:100AC000BB6823F00102FB681A60FB68043BFB6013
:100AD0000C4AFB681A60FB68143BFB607A68FB6891
:100AE0001A60FB68043BFB60FB686FF002021A604F
:100AF000FB68203BFB60FB6818461437BD465DF879
:100B0000047B7047090B000880B485B000AF002358
:100B10007B60124B1B68B3F1FF3F0AD04FF05003CC
:100B200083F31188BFF36F8FBFF34F8FFB6000BF5C
:100B3000FEE74FF0500383F31188BFF36F8FBFF3CD
:100B40004F8FBB6000BF00BF7B68002BFCD000BF95
:100B500000BF1437BD465DF8047B704700000020DD
:100B6000074B19680868B0E8F04F80F30988BFF3B5
:100B70006F8F4FF0000080F311887047AFF3008053
:100B8000C430012000BF08480068006880F308886E
:100B90004FF0000080F3148862B661B6BFF34F8F48
:100BA000BFF36F8F00DF00BF08ED00E000BF80B52E
:100BB00086B000AF454B1B68454A93420AD14FF0BF
:100BC000500383F31188BFF36F8FBFF34F8F3B61E7
:100BD00000BFFEE73D4B1B683E4A93420AD14FF0EF
:100BE000500383F31188BFF36F8FBFF34F8FFB6008
:100BF00000BFFEE7384B7B617B691B78DBB27B6013
:100C00007B69FF221A707B691B78DBB2FB70FB7873
:100C1000DBB203F05003DAB2304B1A70304B0722CC
:100C20001A6009E02E4B1B68013B2D4A1360FB78CC
:100C3000DBB25B00DBB2FB70FB78DBB203F080035E
:100C4000802BEFD0264B1B68C3F10703042B0AD07F
:100C50004FF0500383F31188BFF36F8FBFF34F8FB3
:100C6000BB6000BFFEE71E4B1B681B021C4A1360E3
:100C70001B4B1B6803F4E063194A13607B68DAB20C
:100C80007B691A70174B1B68164A43F47003136094
:100C9000144B1B68134A43F07043136000F0F6F8DE
:100CA000114B00221A6000F00BF9104B1B680F4A21
:100CB00043F040431360FFF766FF02F005FEFFF7C5
:100CC00023FF002318461837BD4680BD00ED00E025
:100CD00071C20F4170C20F4100E400E07C3001207E
:100CE0008030012020ED00E00000002034EF00E023
:100CF00080B483B000AF0B4B1B68B3F57A7F0AD08A
:100D00004FF0500383F31188BFF36F8FBFF34F8F02
:100D10007B6000BFFEE700BF0C37BD465DF8047B7B
:100D2000704700BF0000002080B483B000AF4FF0D8
:100D3000500383F31188BFF36F8FBFF34F8F7B6036
:100D400000BF0F4B1B6801330D4A13600C4B1B682F
:100D5000012B0FD10B4B1B68DBB2002B0AD04FF0DD
:100D6000500383F31188BFF36F8FBFF34F8F3B6046
:100D700000BFFEE700BF0C37BD465DF8047B70473F
:100D80000000002004ED00E080B483B000AF124BFF
:100D90001B68002B0AD14FF0500383F31188BFF377
:100DA0006F8FBFF34F8F7B6000BFFEE70A4B1B685E
:100DB000013B094A1360084B1B68002B05D1002337
:100DC0003B603B6883F3118800BF00BF0C37BD4612
:100DD0005DF8047B704700BF00000020EFF309803E
:100DE000BFF36F8F164B1A681EF0100F08BF20ED6F
:100DF000108A20E9F04F10602DE909004FF05000F3
:100E000080F31188BFF34F8FBFF36F8F02F05CFD4B
:100E10004FF0000080F3118809BC19680868B0E839
:100E2000F04F1EF0100F08BFB0EC108A80F3098855
:100E3000BFF36F8F704700BFAFF30080AFF3008048
:100E4000C430012000BF80B582B000AF4FF0500326
:100E500083F31188BFF36F8FBFF34F8F7B6000BFA9
:100E600002F014FC0346002B03D0074B4FF08052D6
:100E70001A6000233B603B6883F3118800BF00BF0A
:100E80000837BD4680BD00BF04ED00E080B400AF70
:100E9000084B00221A60084B00221A60074B43F6E9
:100EA0007F621A60034B07221A6000BFBD465DF8DF
:100EB000047B704710E000E018E000E014E000E080
:100EC000DFF80C00016841F4700101607047000018
:100ED00088ED00E000BF80B485B000AFEFF305837C
:100EE000FB60FB680F2B14D9164AFB6813441B7870
:100EF000FB72154B1B78FA7A9A420AD24FF05003D4
:100F000083F31188BFF36F8FBFF34F8F7B6000BFF8
:100F1000FEE70E4B1B6803F4E0620D4B1B689A4220
:100F20000AD94FF0500383F31188BFF36F8FBFF3DB
:100F30004F8F3B6000BFFEE700BF1437BD465DF832
:100F4000047B7047F0E300E07C3001200CED00E012
:100F50008030012080B586B000AF78603960012311
:100F60007B617B683B613B69002B0AD14FF05003EA
:100F700083F31188BFF36F8FBFF34F8FFB6000BF08
:100F8000FEE73B69002B5DD03B69DB6B002B59D042
:100F90003B691A6C3B69DB6B0021A3FB0223002B2E
:100FA00000D001210B46002B4CD1FFF7BDFE3B6961
:100FB0001A683B69DB6B3969096C01FB03F31A445E
:100FC0003B699A603B6900229A633B691A683B69F6
:100FD0005A603B691A683B69DB6B013B3969096CF4
:100FE00001FB03F31A443B69DA603B69FF2283F893
:100FF00044203B69FF2283F845203B68002B14D135
:101000003B691B69002B1AD03B691033184602F06C
:101010009BFD0346002B12D0154B4FF080521A60F7
:10102000BFF34F8FBFF36F8F09E03B691033184652
:10103000FFF754FB3B6924331846FFF74FFBFFF7DC
:10104000A3FE01E000237B617B69002B0AD14FF0F6
:10105000500383F31188BFF36F8FBFF34F8FBB60D3
:1010600000BFFEE77B6918461837BD4680BD00BF4C
:1010700004ED00E080B58AB002AFF860B9601346B5
:10108000FB710023FB61FB68002B2ED00021BA68A6
:10109000FB68A3FB0223002B00D001210B46002B91
:1010A00023D1FB68BA6802FB03F313F1510F1CD87C
:1010B000FB68BA6802FB03F3BB61BB695033184697
:1010C000FFF78EF8F861FB69002B1CD0FB697B6190
:1010D0007B6950337B61FA79FB69009313467A6927
:1010E000B968F86800F014F80DE0FB69002B0AD12C
:1010F0004FF0500383F31188BFF36F8FBFF34F8F0F
:101100003B6100BFFEE7FB6918462037BD4680BD46
:1011100080B584B000AFF860B9607A60FB70BB68DE
:10112000002B03D1BB69BA691A6002E0BB697A6817
:101130001A60BB69FA68DA63BB69BA681A6401218C
:10114000B869FFF707FFBB69FA7883F84C2000BF46
:101150001037BD4680BD80B582B000AF78607B6837
:10116000002B0ED07B6800229A607B6800221A60F8
:101170007B680022DA60002300220021786800F0FA
:10118000B4F800BF0837BD4680BD80B586B000AF5B
:101190000346FB7101237B6100233B61FB791A4607
:1011A00039697869FFF766FFF860F868FFF7D3FFE1
:1011B000FB6818461837BD4680BD90B587B000AFB4
:1011C00078607B683B613B69002B0AD14FF050038C
:1011D00083F31188BFF36F8FBFF34F8FFB6000BFA6
:1011E000FEE73B699C6803F0A3F803469C4211D1DB
:1011F0003B69DB685A1E3B69DA603B69DB68002BA0
:1012000005D1002300220021386900F06EF8012387
:101210007B6101E000237B617B6918461C37BD467A
:1012200090BD90B587B000AF786039607B683B6156
:101230003B69002B0AD14FF0500383F31188BFF3B1
:101240006F8FBFF34F8FFB6000BFFEE73B699C6869
:1012500003F06EF803469C4207D13B69DB685A1CD9
:101260003B69DA6001237B610CE03968386900F082
:1012700071FB78617B69002B04D03B69DB685A1CE9
:101280003B69DA607B6918461C37BD4690BD80B566
:1012900084B000AF786039600023FB607B68002B6E
:1012A00010D03A687B689A420CD8022200217868F4
:1012B000FFF7E0FEF860FB68002B11D0FB683A688E
:1012C0009A630DE0FB68002B0AD14FF0500383F3C3
:1012D0001188BFF36F8FBFF34F8FBB6000BFFEE776
:1012E000FB6818461037BD4680BD80B58EB000AF94
:1012F000F860B9607A603B6000237B63FB683B6306
:101300003B6B002B0AD14FF0500383F31188BFF3DE
:101310006F8FBFF34F8FBB6200BFFEE7BB68002B30
:1013200003D13B6B1B6C002B01D1012300E0002398
:10133000002B0AD14FF0500383F31188BFF36F8F56
:10134000BFF34F8F7B6200BFFEE73B68022B03D1E8
:101350003B6BDB6B012B01D1012300E00023002B51
:101360000AD14FF0500383F31188BFF36F8FBFF39F
:101370004F8F3B6200BFFEE702F0EAFF0346002BFF
:1013800002D17B68002B01D1012300E00023002B58
:101390000AD14FF0500383F31188BFF36F8FBFF36F
:1013A0004F8FFB6100BFFEE7FFF7BEFC3B6B9A6B04
:1013B0003B6BDB6B9A4202D33B68022B29D13A6824
:1013C000B968386B00F062FEF8623B6B5B6A002B19
:1013D00010D03B6B2433184602F0B6FB0346002BBB
:1013E00013D0404B4FF080521A60BFF34F8FBFF3C2
:1013F0006F8F0AE0FB6A002B07D03A4B4FF0805208
:101400001A60BFF34F8FBFF36F8FFFF7BDFC01234F
:1014100063E07B68002B03D1FFF7B6FC00235CE0A0
:101420007B6B002B06D107F11403184602F048FD30
:1014300001237B63FFF7A8FC01F012FFFFF774FCA8
:101440003B6B93F844305BB2B3F1FF3F03D13B6B8E
:10145000002283F844203B6B93F845305BB2B3F134
:10146000FF3F03D13B6B002283F84520FFF78CFC44
:101470003A1D07F114031146184602F037FD0346E2
:10148000002B24D1386B00F01DFF0346002B18D031
:101490003B6B10337A681146184602F095FA386BA8
:1014A00000F084FE01F0EAFE0346002B7FF47CAFDF
:1014B0000C4B4FF080521A60BFF34F8FBFF36F8F0A
:1014C00072E7386B00F072FE01F0D8FE6CE7386B03
:1014D00000F06CFE01F0D2FE002318463837BD46FE
:1014E00080BD00BF04ED00E080B592B000AFF860B1
:1014F000B9607A603B60FB683B643B6C002B0AD1AF
:101500004FF0500383F31188BFF36F8FBFF34F8FFA
:10151000FB6200BFFEE7BB68002B03D13B6C1B6C7A
:10152000002B01D1012300E00023002B0AD14FF052
:10153000500383F31188BFF36F8FBFF34F8FBB62EC
:1015400000BFFEE73B68022B03D13B6CDB6B012B3A
:1015500001D1012300E00023002B0AD14FF05003FA
:1015600083F31188BFF36F8FBFF34F8F7B6200BF90
:10157000FEE7FFF7B0FCEFF311824FF0500383F367
:101580001188BFF36F8FBFF34F8F3A62FB613B6AE5
:10159000FB633B6C9A6B3B6CDB6B9A4202D33B6800
:1015A000022B46D13B6C93F8453087F83B303B6CBF
:1015B0009B6B7B633A68B968386C00F067FD97F9FC
:1015C0003B30B3F1FF3F12D13B6C5B6A002B2DD057
:1015D0003B6C2433184602F0B7FA0346002B25D0A3
:1015E0007B68002B22D07B6801221A601EE001F08C
:1015F00063FF386397F93B303A6B9A4216D997F9F3
:101600003B307F2B0AD14FF0500383F31188BFF397
:101610006F8FBFF34F8FBB6100BFFEE797F83B3082
:101620000133DBB25AB23B6C83F8452001237B6463
:1016300001E000237B64FB6B7B617B6983F3118892
:1016400000BF7B6C18464837BD4680BD80B590B062
:1016500000AF786039607B68BB63BB6B002B0AD13D
:101660004FF0500383F31188BFF36F8FBFF34F8F99
:101670007B6200BFFEE7BB6B1B6C002B0AD04FF0F8
:10168000500383F31188BFF36F8FBFF34F8F3B621B
:1016900000BFFEE7BB6B1B68002B03D1BB6B9B68D5
:1016A000002B01D1012300E00023002B0AD14FF0D1
:1016B000500383F31188BFF36F8FBFF34F8FFB612C
:1016C00000BFFEE7FFF707FCEFF311824FF0500376
:1016D00083F31188BFF36F8FBFF34F8FBA617B61C4
:1016E000BB697B63BB6B9B6B3B63BB6BDB6B3A6B1D
:1016F0009A4242D2BB6B93F8453087F82F303B6B50
:101700005A1CBB6B9A6397F92F30B3F1FF3F12D18C
:10171000BB6B5B6A002B2DD0BB6B2433184602F0E9
:1017200013FA0346002B25D03B68002B22D03B68E0
:1017300001221A601EE001F0BFFEB86297F92F3057
:10174000BA6A9A4216D997F92F307F2B0AD14FF0F7
:10175000500383F31188BFF36F8FBFF34F8F3B614B
:1017600000BFFEE797F82F300133DBB25AB2BB6BF4
:1017700083F845200123FB6301E00023FB637B6BBF
:10178000FB60FB6883F3118800BFFB6B1846403792
:10179000BD4680BD80B58CB000AFF860B9607A609E
:1017A0000023FB62FB68BB62BB6A002B0AD14FF0CF
:1017B000500383F31188BFF36F8FBFF34F8F3B62EA
:1017C00000BFFEE7BB68002B03D1BB6A1B6C002B7C
:1017D00001D1012300E00023002B0AD14FF0500378
:1017E00083F31188BFF36F8FBFF34F8FFB6100BF8F
:1017F000FEE702F0ADFD0346002B02D17B68002B13
:1018000001D1012300E00023002B0AD14FF0500347
:1018100083F31188BFF36F8FBFF34F8FBB6100BF9E
:10182000FEE7FFF781FABB6A9B6B7B627B6A002B4A
:101830001FD0B968B86A00F093FC7B6A5A1EBB6A75
:101840009A63BB6A1B69002B0FD0BB6A1033184622
:1018500002F07AF90346002B07D03D4B4FF080523F
:101860001A60BFF34F8FBFF36F8FFFF78DFA01231D
:1018700069E07B68002B03D1FFF786FA002362E062
:10188000FB6A002B06D107F11003184602F018FB83
:101890000123FB62FFF778FA01F0E2FCFFF744FA5C
:1018A000BB6A93F844305BB2B3F1FF3F03D1BB6A2C
:1018B000002283F84420BB6A93F845305BB2B3F151
:1018C000FF3F03D1BB6A002283F84520FFF75CFA93
:1018D0003A1D07F110031146184602F007FB0346B4
:1018E000002B23D1B86A00F0B3FC0346002B17D0BD
:1018F000BB6A24337A681146184602F065F8B86A64
:1019000000F054FC01F0BAFC0346002B89D1104BC7
:101910004FF080521A60BFF34F8FBFF36F8F80E795
:10192000B86A00F043FC01F0A9FC7AE7B86A00F05D
:101930003DFC01F0A3FCB86A00F08AFC0346002BD2
:101940003FF46FAF002318463037BD4680BD00BF5F
:1019500004ED00E080B58CB000AF78603960002302
:10196000FB627B687B620023BB627B6A002B0AD12F
:101970004FF0500383F31188BFF36F8FBFF34F8F86
:10198000BB6100BFFEE77B6A1B6C002B0AD04FF0E7
:10199000500383F31188BFF36F8FBFF34F8F7B61C9
:1019A00000BFFEE702F0D4FC0346002B02D13B68E7
:1019B000002B01D1012300E00023002B0AD14FF0BE
:1019C000500383F31188BFF36F8FBFF34F8F3B61D9
:1019D00000BFFEE7FFF7A8F97B6A9B6B3B623B6A9F
:1019E000002B24D03B6A5A1E7B6A9A637B6A1B6871
:1019F000002B04D102F0DCFE02467B6A9A607B6A0F
:101A00001B69002B0FD07B6A1033184602F09CF83C
:101A10000346002B07D04D4B4FF080521A60BFF3A6
:101A20004F8FBFF36F8FFFF7AFF9012389E03B685A
:101A3000002B03D1FFF7A8F9002382E0FB6A002BFB
:101A400006D107F10803184602F03AFA0123FB62B7
:101A5000FFF79AF901F004FCFFF766F97B6A93F847
:101A600044305BB2B3F1FF3F03D17B6A002283F8BD
:101A700044207B6A93F845305BB2B3F1FF3F03D15A
:101A80007B6A002283F84520FFF77EF93A4607F18A
:101A900008031146184602F029FA0346002B32D1FA
:101AA000786A00F0D5FB0346002B26D07B6A1B68C2
:101AB000002B09D1FFF738F97B6A9B68184602F0C2
:101AC00065FCB862FFF760F97B6A24333A68114617
:101AD000184601F079FF786A00F068FB01F0CEFB50
:101AE0000346002B7FF476AF184B4FF080521A60FC
:101AF000BFF34F8FBFF36F8F6CE7786A00F056FB30
:101B000001F0BCFB66E7786A00F050FB01F0B6FB21
:101B1000786A00F09DFB0346002B3FF45BAFBB6A85
:101B2000002B0DD0FFF700F9786A00F097FAF86102
:101B30007B6A9B68F969184602F06AFDFFF724F991
:101B4000002318463037BD4680BD00BF04ED00E0DD
:101B500080B58EB000AFF860B9607A6000237B6317
:101B6000FB683B633B6B002B0AD14FF0500383F3C0
:101B70001188BFF36F8FBFF34F8F7B6200BFFEE70B
:101B8000BB68002B03D13B6B1B6C002B01D10123E5
:101B900000E00023002B0AD14FF0500383F311889B
:101BA000BFF36F8FBFF34F8F3B6200BFFEE702F0C2
:101BB000CFFB0346002B02D17B68002B01D1012310
:101BC00000E00023002B0AD14FF0500383F311886B
:101BD000BFF36F8FBFF34F8FFB6100BFFEE7FFF7CF
:101BE000A3F83B6B9B6BFB62FB6A002B21D03B6B2A
:101BF000DB68BB62B968386B00F0B2FA3B6BBA6A5B
:101C0000DA603B6B5B6A002B0FD03B6B24331846CA
:101C100001F09AFF0346002B07D03D4B4FF0805256
:101C20001A60BFF34F8FBFF36F8FFFF7ADF801233B
:101C300069E07B68002B03D1FFF7A6F8002362E080
:101C40007B6B002B06D107F11403184602F038F91C
:101C500001237B63FFF798F801F002FBFFF764F8BC
:101C60003B6B93F844305BB2B3F1FF3F03D13B6B66
:101C7000002283F844203B6B93F845305BB2B3F10C
:101C8000FF3F03D13B6B002283F84520FFF77CF830
:101C90003A1D07F114031146184602F027F90346CE
:101CA000002B23D1386B00F0D3FA0346002B17D05A
:101CB0003B6B24337A681146184601F085FE386B79
:101CC00000F074FA01F0DAFA0346002B87D1104BCA
:101CD0004FF080521A60BFF34F8FBFF36F8F7EE7D4
:101CE000386B00F063FA01F0C9FA78E7386B00F05E
:101CF0005DFA01F0C3FA386B00F0AAFA0346002B34
:101D00003FF46DAF002318463837BD4680BD00BF95
:101D100004ED00E080B590B000AFF860B9607A6083
:101D2000FB68BB63BB6B002B0AD14FF0500383F3FE
:101D30001188BFF36F8FBFF34F8F7B6200BFFEE749
:101D4000BB68002B03D1BB6B1B6C002B01D10123A3
:101D500000E00023002B0AD14FF0500383F31188D9
:101D6000BFF36F8FBFF34F8F3B6200BFFEE7FFF7FC
:101D7000B2F8EFF311824FF0500383F31188BFF3F1
:101D80006F8FBFF34F8FFA61BB61FB697B63BB6BE6
:101D90009B6B3B633B6B002B46D0BB6B93F8443093
:101DA00087F82F30B968B86B00F0DAF93B6B5A1E30
:101DB000BB6B9A6397F92F30B3F1FF3F12D1BB6B26
:101DC0001B69002B2DD0BB6B1033184601F0BCFEF5
:101DD0000346002B25D07B68002B22D07B68012294
:101DE0001A601EE001F068FBB86297F92F30BA6AFA
:101DF0009A4216D997F92F307F2B0AD14FF0500312
:101E000083F31188BFF36F8FBFF34F8F7B6100BFE8
:101E1000FEE797F82F300133DBB25AB2BB6B83F881
:101E200044200123FB6301E00023FB637B6B3B61E8
:101E30003B6983F3118800BFFB6B18464037BD46F2
:101E400080BD80B58CB000AF786039607B68BB62C4
:101E5000BB6A002B0AD14FF0500383F31188BFF304
:101E60006F8FBFF34F8FFB6100BFFEE73B68002B16
:101E700003D1BB6A1B6C002B01D1012300E00023BE
:101E8000002B0AD14FF0500383F31188BFF36F8FFB
:101E9000BFF34F8FBB6100BFFEE7BB6A1B6C002B1B
:101EA0000AD14FF0500383F31188BFF36F8FBFF354
:101EB0004F8F7B6100BFFEE7FFF70DF8EFF3118254
:101EC0004FF0500383F31188BFF36F8FBFF34F8F31
:101ED0003A61FB603B697B62BB6A9B6B002B0CD059
:101EE000BB6ADB683B623968B86A00F039F9BB6AE3
:101EF0003A6ADA600123FB6201E00023FB627B6A3D
:101F0000BB60BB6883F3118800BFFB6A184630379B
:101F1000BD4680BD80B584B000AF78607B68002B83
:101F20000AD14FF0500383F31188BFF36F8FBFF3D3
:101F30004F8FBB6000BFFEE7FEF7F6FE7B689B6B32
:101F4000FB60FEF721FFFB6818461037BD4680BDD9
:101F500080B586B000AF78607B687B617B69002BC1
:101F60000AD14FF0500383F31188BFF36F8FBFF393
:101F70004F8FFB6000BFFEE7FEF7D6FE7B69DA6B92
:101F80007B699B6BD31A3B61FEF7FEFE3B691846EB
:101F90001837BD4680BD80B487B000AF78607B68DD
:101FA0007B617B69002B0AD14FF0500383F31188CA
:101FB000BFF36F8FBFF34F8FFB6000BFFEE77B69FE
:101FC0009B6B3B613B6918461C37BD465DF8047B43
:101FD000704780B584B000AF78607B68FB60FB68B9
:101FE000002B0AD14FF0500383F31188BFF36F8F9A
:101FF000BFF34F8FBB6000BFFEE7F86800F022FA26
:10200000F868FEF7ABF900BF1037BD4680BD80B45D
:1020100083B000AF78607B689B6C18460C37BD4678
:102020005DF8047B704780B483B000AF786039609E
:102030007B683A689A6400BF0C37BD465DF8047B44
:10204000704780B483B000AF78607B6893F84C3001
:1020500018460C37BD465DF8047B704780B485B0E8
:1020600000AF78607B685B6A002B06D07B681B6BD7
:102070001B68C3F10503FB6001E00023FB60FB6804
:1020800018461437BD465DF8047B704780B586B0AE
:1020900000AFF860B9607A6000237B61FB689B6BDE
:1020A0003B61FB681B6C002B0DD1FB681B68002B90
:1020B0004DD1FB689B68184602F006FA7861FB6810
:1020C00000229A6043E07B68002B19D1FB685868B6
:1020D000FB681B6C1A46B96803F058FDFB685A6828
:1020E000FB681B6C1A44FB685A60FB685A68FB6803
:1020F0009B689A422BD3FB681A68FB685A6026E0FB
:10210000FB68D868FB681B6C1A46B96803F03EFD93
:10211000FB68DA68FB681B6C5B421A44FB68DA6098
:10212000FB68DA68FB681B689A4207D2FB689A680A
:10213000FB681B6C5B421A44FB68DA607B68022B0D
:1021400005D13B69002B02D03B69013B3B613B69F8
:102150005A1CFB689A637B6918461837BD4680BDD8
:1021600080B582B000AF786039607B681B6C002B53
:1021700018D07B68DA687B681B6C1A447B68DA606D
:102180007B68DA687B689B689A4203D37B681A682D
:102190007B68DA607B68D9687B681B6C1A46386894
:1021A00003F0F4FC00BF0837BD4680BD80B584B0A5
:1021B00000AF7860FEF7B8FD7B6893F84530FB739D
:1021C00011E07B685B6A002B12D07B6824331846D1
:1021D00001F0BAFC0346002B01D001F0EDFEFB7BC1
:1021E000013BDBB2FB7397F90F30002BE9DC00E019
:1021F00000BF7B68FF2283F84520FEF7C5FDFEF790
:1022000093FD7B6893F84430BB7311E07B681B69D6
:10221000002B12D07B681033184601F095FC034662
:10222000002B01D001F0C8FEBB7B013BDBB2BB73CE
:1022300097F90E30002BE9DC00E000BF7B68FF223D
:1022400083F84420FEF7A0FD00BF1037BD4680BDD7
:1022500080B584B000AF7860FEF766FD7B689B6B4D
:10226000002B02D10123FB6001E00023FB60FEF79D
:102270008BFDFB6818461037BD4680BD80B487B023
:1022800000AF78607B683B613B69002B0AD14FF05F
:10229000500383F31188BFF36F8FBFF34F8FFB6041
:1022A00000BFFEE73B699B6B002B02D101237B61E2
:1022B00001E000237B617B6918461C37BD465DF851
:1022C000047B704780B584B000AF7860FEF72CFDCA
:1022D0007B689A6B7B68DB6B9A4202D10123FB60BF
:1022E00001E00023FB60FEF74FFDFB681846103746
:1022F000BD4680BD80B487B000AF78607B683B612D
:102300003B69002B0AD14FF0500383F31188BFF3D0
:102310006F8FBFF34F8FFB6000BFFEE73B699A6B87
:102320003B69DB6B9A4202D101237B6101E0002310
:102330007B617B6918461C37BD465DF8047B70479E
:1023400080B487B000AF7860396000233B617B6860
:10235000002B0AD14FF0500383F31188BFF36F8F26
:10236000BFF34F8FFB6000BFFEE73B68002B24D01C
:1023700000237B611EE0184A7B69DB0013445B6825
:102380007A689A4205D17B69DB00134A13443B61AA
:1023900013E03B69002B0AD10F4A7B6952F83330B6
:1023A000002B04D17B69DB000B4A13443B617B6942
:1023B00001337B617B69072BDDD93B69002B05D09D
:1023C0003B693A681A603B697A685A6000BF1C37FB
:1023D000BD465DF8047B70478430012080B487B02F
:1023E00000AF786000233B617B68002B0AD14FF07F
:1023F000500383F31188BFF36F8FBFF34F8FFB60E0
:1024000000BFFEE700237B6110E00D4A7B69DB0023
:1024100013445B687A689A4205D1094A7B6952F88D
:1024200033303B6105E07B6901337B617B69072BBE
:10243000EBD93B6918461C37BD465DF8047B7047F5
:102440008430012080B485B000AF78607B68002BB9
:102450000AD14FF0500383F31188BFF36F8FBFF39E
:102460004F8FBB6000BFFEE70023FB6016E0104A01
:10247000FB68DB0013445B687A689A420BD10C4A14
:10248000FB68002142F83310094AFB68DB00134463
:1024900000225A6006E0FB680133FB60FB68072BF3
:1024A000E5D900BF00BF1437BD465DF8047B704717
:1024B0008430012080B586B000AFF860B9607A60E2
:1024C000FB687B61FEF730FC7B6993F844305BB2BC
:1024D000B3F1FF3F03D17B69002283F844207B697D
:1024E00093F845305BB2B3F1FF3F03D17B69002223
:1024F00083F84520FEF748FC7B699B6B002B06D1D7
:102500007B6924337A68B968184601F0D7FA78698C
:10251000FFF74CFE00BF1837BD4680BD80B58CB0BC
:1025200004AFF860B9603B601346FB80FB889B00FA
:102530001846FDF755FE78617B69002B13D05820B3
:10254000FDF74EFEF861FB69002B08D058220021F0
:10255000F86903F003FCFB697A691A6305E078699E
:10256000FDF7FCFE01E00023FB61FB69002B13D0AB
:10257000FA8800230393FB690293FB6A0193BB6A09
:1025800000933B68B968F86800F00EF8F86900F04D
:1025900099F80123BB6102E04FF0FF33BB61BB69D7
:1025A00018462037BD4680BD80B588B000AFF860C2
:1025B000B9607A603B603B6B186B7B689B001A4686
:1025C000A52103F0CBFB3B6B1A6B7B6803F18043C7
:1025D000013B9B001344BB61BB6923F00703BB6154
:1025E000BB6903F00703002B0AD04FF0500383F3BD
:1025F0001188BFF36F8FBFF34F8F7B6100BFFEE782
:10260000BB68002B1ED00023FB6112E0BA68FB6997
:10261000134419783A6BFB69134434330A461A7031
:10262000BA68FB6913441B78002B06D0FB690133A1
:10263000FB61FB69092BE9D900E000BF3B6B00227D
:1026400083F83D20BB6A042B0AD94FF0500383F373
:102650001188BFF36F8FBFF34F8F3B6100BFFEE761
:10266000BB6A042B01D90423BB623B6BBA6ADA62F2
:102670003B6BBA6A9A643B6B04331846FEF74EF81C
:102680003B6B18331846FEF749F83B6B3A6B1A61FF
:10269000BB6AC3F105023B6B9A613B6B3A6B5A62B2
:1026A0003A68F968B869FEF7FBF902463B6B1A60B5
:1026B000FB6A002B02D0FB6A3A6B1A6000BF20371E
:1026C000BD4680BD80B584B000AF7860FEF72CFBBE
:1026D000404B1B6801333F4A13603F4B1B68002B84
:1026E00009D13D4A7B6813603A4B1B68012B10D11E
:1026F00001F0B0FC0DE0394B1B68002B09D1364BC3
:102700001B68DA6A7B68DB6A9A4202D8324A7B68C5
:102710001360334B1B680133314A1360304B1A6826
:102720007B681A647B68DB6A01229A402D4B1B6828
:1027300013432C4A13607B68DA6A2B4913469B00CB
:1027400013449B000B4404331B68FB607B68FA68EE
:102750009A60FB689A687B68DA60FB689B687A68B5
:1027600004325A607B681A1DFB689A607B68DA6ADB
:1027700013469B0013449B001B4A1A447B685A6112
:102780007B68DA6A184913469B0013449B000B448C
:102790001B68591C144813469B0013449B000344B8
:1027A0001960FEF7F1FA0D4B1B68002B0ED00A4B97
:1027B0001B68DA6A7B68DB6A9A4207D20B4B4FF0E0
:1027C00080521A60BFF34F8FBFF36F8F00BF103777
:1027D000BD4680BD9C310120C4300120A8310120BC
:1027E000B8310120A4310120C830012004ED00E0FF
:1027F00080B584B000AF7860FEF796FA7B68002B56
:1028000002D13B4B1B6800E07B68FB60FB68043334
:102810001846FDF7EDFF0346002B15D1FB68DA6A79
:10282000344913469B0013449B000B441B68002B48
:102830000AD1FB68DB6A012202FA03F3DA432E4B6A
:102840001B6813402C4A1360FB689B6A002B04D062
:10285000FB6818331846FDF7CBFF284B1B68013384
:10286000264A1360224B1B68FA689A420BD1FB6818
:10287000043319462248FDF75EFF224B1B680133E3
:10288000204A136006E0204B1B68013B1E4A136080
:1028900001F032FDFEF778FA154B1B68FA689A4290
:1028A00002D0F86801F018FD184B1B68002B1BD0F4
:1028B0000F4B1B68FA689A4216D1154B1B68002B08
:1028C0000AD04FF0500383F31188BFF36F8FBFF32B
:1028D0004F8FBB6000BFFEE70E4B4FF080521A6077
:1028E000BFF34F8FBFF36F8F00BF1037BD4680BD62
:1028F000C4300120C8300120A4310120B8310120AA
:1029000070310120843101209C310120A831012047
:10291000C431012004ED00E080B58AB000AF7860DA
:10292000396000237B627B68002B0AD14FF0500393
:1029300083F31188BFF36F8FBFF34F8F7B6100BFAD
:10294000FEE73B68002B0AD14FF0500383F3118858
:10295000BFF36F8FBFF34F8F3B6100BFFEE72A4B82
:102960001B68002B0AD04FF0500383F31188BFF38C
:102970006F8FBFF34F8FFB6000BFFEE700F070FC6E
:10298000224B1B683B627B681B683A681344FB61FF
:102990007B681B683A6A9A420BD27B681B68FA69AB
:1029A0009A4211D2FA693B6A9A420DD901237B629D
:1029B0000AE07B681B68FA699A4203D3FA693B6AAA
:1029C0009A4201D901237B627B68FA691A607B6AAB
:1029D000002B06D0FA693B6AD31A0021184602F090
:1029E000CFFB00F04BFCB861BB69002B07D1084B53
:1029F0004FF080521A60BFF34F8FBFF36F8F7B6A27
:102A000018462837BD4680BDC4310120A0310120C1
:102A100004ED00E080B584B000AF78600023FB6077
:102A20007B68002B17D0134B1B68002B0AD04FF08C
:102A3000500383F31188BFF36F8FBFF34F8FBB60D9
:102A400000BFFEE700F00CFC0021786802F098FB64
:102A500000F014FCF860FB68002B07D1064B4FF028
:102A600080521A60BFF34F8FBFF36F8F00BF1037D4
:102A7000BD4680BDC431012004ED00E080B58AB0C0
:102A800000AF78607B68FB61FB69002B0AD14FF0D7
:102A9000500383F31188BFF36F8FBFF34F8FFB6039
:102AA00000BFFEE72D4B1B68FA699A4203D1002351
:102AB00087F827304BE0FEF737F9FB695B69BB61AC
:102AC000274B1B687B61274B1B683B61FEF75CF95A
:102AD000BA697B699A4203D0BA693B699A4203D1C9
:102AE000022387F8273032E0BB691F4A934220D186
:102AF000FB699B6A002B18D1032387F8273000233A
:102B00003B620EE0FA693B6A134454331B78DBB234
:102B1000012B03D1022387F8273018E03B6A0133E9
:102B20003B623B6A002BEDDD11E0022387F8273082
:102B30000DE0BB690D4A934202D0BB69002B03D163
:102B4000042387F8273002E0012387F8273097F81D
:102B5000273018462837BD4680BD00BFC43001204D
:102B60005431012058310120883101207031012079
:102B700080B584B000AF7860FEF7D6F87B68002B94
:102B800002D1074B1B6800E07B68FB60FB68DB6AD7
:102B9000BB60FEF7F9F8BB6818461037BD4680BD2C
:102BA000C430012080B588B000AF7860FEF793F99B
:102BB000EFF311824FF0500383F31188BFF36F8F4F
:102BC000BFF34F8F3A61FB603B69FB617B68002B71
:102BD00002D1094B1B6800E07B68BB61BB69DB6A03
:102BE0007B61FB69BB60BB6883F3118800BF7B69B5
:102BF00018462037BD4680BDC430012080B588B05E
:102C000000AF786039600023FB613B68042B0AD970
:102C10004FF0500383F31188BFF36F8FBFF34F8FD3
:102C2000BB6000BFFEE73B68042B01D904233B6077
:102C3000FEF77AF87B68002B02D1554B1B6800E049
:102C40007B68BB61BB699B6C7B617A693B689A421C
:102C500000F098803A687B699A420DD94C4B1B680A
:102C6000BA699A420FD04A4B1B68DB6A3A689A42AB
:102C700009D30123FB6106E0454B1B68BA699A4200
:102C800001D10123FB61BB69DB6A3B61BB699A6CC3
:102C9000BB69DB6A9A4202D1BB693A68DA62BB69F6
:102CA0003A689A64BB699B69002B04DB3B68C3F1FB
:102CB0000502BB699A61BB6959693A6913469B0071
:102CC00013449B00334A1344994250D1BB690433E7
:102CD0001846FDF78DFD0346002B09D101223B6903
:102CE00002FA03F3DA432C4B1B6813402A4A1360A1
:102CF000BB69DB6A01229A40274B1B681343264AB3
:102D00001360BB69DA6A234913469B0013449B0096
:102D10000B4404331B68FB60BB69FA689A60FB686C
:102D20009A68BB69DA60FB689B68BA6904325A60CA
:102D3000BB691A1DFB689A60BB69DA6A13469B007F
:102D400013449B00134A1A44BB695A61BB69DA6A8F
:102D5000104913469B0013449B000B441B68591CED
:102D60000C4813469B0013449B0003441960FB6905
:102D7000002B07D0094B4FF080521A60BFF34F8FE2
:102D8000BFF36F8FFEF700F800BF2037BD4680BD50
:102D9000C4300120C8300120A431012004ED00E03E
:102DA00080B586B000AF7860FDF7BEFF7B68002B72
:102DB00002D1434B1B6800E07B683B613B690433F5
:102DC0001846FDF715FD0346002B15D13B69DA6A5D
:102DD0003C4913469B0013449B000B441B68002B8B
:102DE0000AD13B69DB6A012202FA03F3DA43364B6C
:102DF0001B681340344A13603B699B6A002B04D064
:102E00003B6918331846FDF7F3FC3B690433194658
:102E10002E48FDF790FC00237B6110E03A697B6946
:102E2000134454331B78DBB2012B05D13A697B691B
:102E30001344543300221A707B6901337B617B6930
:102E4000002BEBDDFDF7A0FF214B1B68002B05D00D
:102E5000FDF76AFF01F050FAFDF796FF184B1B686B
:102E60003A699A4227D11A4B1B68002B17D0194B8D
:102E70001B68002B0AD04FF0500383F31188BFF377
:102E80006F8FBFF34F8FFB6000BFFEE7124B4FF019
:102E900080521A60BFF34F8FBFF36F8F0BE00B4B65
:102EA0001A680E4B1B689A4203D1054B00221A6028
:102EB00001E000F009FD00BF1837BD4680BD00BF2E
:102EC000C4300120C8300120A43101208831012004
:102ED000A8310120C431012004ED00E09C31012023
:102EE00080B487B000AF786000237B617B683B6172
:102EF0007B68002B0AD14FF0500383F31188BFF396
:102F00006F8FBFF34F8FFB6000BFFEE73B695B69CC
:102F10000A4A93420AD13B699B6A094A934205D007
:102F20003B699B6A002B01D101237B617B691846B9
:102F30001C37BD465DF8047B704700BF8831012017
:102F40005C31012080B586B000AF78607B687B6122
:102F50007B68002B0AD14FF0500383F31188BFF335
:102F60006F8FBFF34F8FFB6000BFFEE7344B1B68D2
:102F70007A699A425FD07B69002B5CD0FDF7D4FE62
:102F80007869FFF7ADFF0346002B52D07B6904330D
:102F90001846FDF72DFC7B69DB6A01229A40294B1C
:102FA0001B681343274A13607B69DA6A2649134674
:102FB0009B0013449B000B4404331B683B617B69FB
:102FC0003A699A603B699A687B69DA603B699B68F9
:102FD0007A6904325A607B691A1D3B699A607B6981
:102FE000DA6A13469B0013449B00174A1A447B6914
:102FF0005A617B69DA6A144913469B0013449B00AB
:103000000B441B68591C104813469B0013449B003B
:10301000034419607B69DA6A094B1B68DB6A9A42D0
:1030200007D30A4B4FF080521A60BFF34F8FBFF3A4
:103030006F8FFDF7A9FE00BF1837BD4680BD00BFEA
:10304000C4300120A4310120C830012004ED00E08B
:1030500080B58AB000AF786000237B627B683B62FA
:103060007B68002B0AD14FF0500383F31188BFF324
:103070006F8FBFF34F8F7B6100BFFEE7FDF72BFF24
:10308000EFF311824FF0500383F31188BFF36F8F7A
:10309000BFF34F8F3A61FB603B69FB61386AFFF712
:1030A0001FFF0346002B5AD0324B1B68002B50D118
:1030B0003B6ADA6A304B1B68DB6A9A4204D301230D
:1030C0007B622E4B01221A603B6A04331846FDF7DF
:1030D0008FFB3B6ADB6A01229A40294B1B68134332
:1030E000274A13603B6ADA6A264913469B00134459
:1030F0009B000B4404331B68BB613B6ABA699A604E
:10310000BB699A683B6ADA60BB699B683A6A0432B9
:103110005A603B6A1A1DBB699A603B6ADA6A1346B9
:103120009B0013449B00174A1A443B6A5A613B6A4E
:10313000DA6A144913469B0013449B000B441B6836
:10314000591C104813469B0013449B00034419600C
:1031500005E03B6A183319460B48FDF7ECFAFB69AA
:10316000BB60BB6883F3118800BF7B6A18462837B1
:10317000BD4680BDC4310120C4300120B0310120E2
:10318000A4310120C83001205C31012080B586B017
:1031900002AF204B01930023009300234FF40072F1
:1031A0001D491E48FFF7BAF9F860FB68012B02D1F0
:1031B00002F066F8F860FB68012B16D14FF050035F
:1031C00083F31188BFF36F8FBFF34F8FBB6000BFD6
:1031D000134B4FF0FF321A60124B01221A60124B50
:1031E00000221A60FDF7E3FC0EE0FB68B3F1FF3F3D
:1031F0000AD14FF0500383F31188BFF36F8FBFF3F1
:103200004F8F7B6000BFFEE7084B1B6800BF103785
:10321000BD4680BDC0310120185F00082340000872
:10322000BC310120A8310120A03101200400002080
:1032300080B582B000AF4FF0500383F31188BFF325
:103240006F8FBFF34F8F7B6000BF044B00221A606B
:10325000FDF74EFD00BF0837BD4680BDA8310120F7
:1032600080B400AF044B1B680133034A136000BFF6
:10327000BD465DF8047B7047C431012080B588B03D
:1032800000AF0023FB610023BB61714B1B68002B67
:103290000AD14FF0500383F31188BFF36F8FBFF350
:1032A0004F8F7B6000BFFEE7FDF73EFD684B1B685C
:1032B000013B674A1360664B1B68002B40F0C080DF
:1032C000644B1B68002B00F0BB808AE0624BDB681C
:1032D000DB68FB61FB699B6A3B61FB69DB69FA693F
:1032E000126A9A60FB691B6AFA69D2695A603B6983
:1032F0005A68FB6918339A4203D1FB691A6A3B6921
:103300005A60FB6900229A623B691B685A1E3B693E
:103310001A60FB695B69FB60FB699B68FA69D268AC
:103320009A60FB69DB68FA6992685A60FB685A68C0
:10333000FB6904339A4203D1FB69DA68FB685A607F
:10334000FB6900225A61FB681B685A1EFB681A6001
:10335000FB69DB6A01229A40404B1B6813433F4ADA
:103360001360FB69DA6A3E4913469B0013449B00D5
:103370000B4404331B68BB60FB69BA689A60BB6886
:103380009A68FB69DA60BB689B68FA6904325A6024
:10339000FB691A1DBB689A60FB69DA6A13469B00D9
:1033A00013449B002E4A1A44FB695A61FB69DA6A8E
:1033B0002B4913469B0013449B000B441B68591C6C
:1033C000274813469B0013449B0003441960FB6984
:1033D000DA6A244B1B68DB6A9A4202D3224B012231
:1033E0001A601D4B1B68002B7FF470AFFB69002B2C
:1033F00001D000F081FF1D4B1B687B617B69002BB6
:1034000010D000F043F90346002B02D0164B0122E6
:103410001A607B69013B7B617B69002BF1D1134B07
:1034200000221A60104B1B68002B09D00123BB61DE
:103430000F4B4FF080521A60BFF34F8FBFF36F8F67
:10344000FDF7A2FCBB6918462037BD4680BD00BF12
:10345000C43101209C3101205C310120A4310120C4
:10346000C8300120C4300120B0310120AC3101202E
:1034700004ED00E080B483B000AF054B1B687B60B7
:103480007B6818460C37BD465DF8047B704700BF6B
:10349000A031012080B582B000AFFDF71CFD0023F4
:1034A0007B60044B1B683B603B6818460837BD4691
:1034B00080BD00BFA031012080B400AF034B1B686A
:1034C0001846BD465DF8047B704700BF9C31012063
:1034D00080B485B000AF78607B68002B02D10D4BC3
:1034E0001B6800E07B68FB60FB68002B0AD14FF093
:1034F000500383F31188BFF36F8FBFF34F8FBB600F
:1035000000BFFEE7FB68343318461437BD465DF84C
:10351000047B7047C430012080B586B000AFF860EE
:10352000B9607A6000237B6105233B61FFF798FE59
:103530003A4B1B68BA689A4268D33B69013B3B61CE
:103540007A691346DB0013449B001A46FB689818FF
:103550003A6913469B0013449B00314A13440122ED
:10356000194600F04BFE02467B6913447B613B69C0
:10357000002BE2D17A691346DB0013449B001A4604
:10358000FB681344274A11680222184600F036FEF1
:1035900002467B6913447B617A691346DB0013445E
:1035A0009B001A46FB6813441F4A11680222184602
:1035B00000F024FE02467B6913447B617A6913465E
:1035C000DB0013449B001A46FB681344042217498E
:1035D000184600F013FE02467B6913447B617A694A
:1035E0001346DB0013449B001A46FB681344032276
:1035F0000F49184600F002FE02467B6913447B61C6
:103600007B68002B02D07B6800221A60FFF736FE31
:103610007B6918461837BD4680BD00BF9C3101202C
:10362000C83001205431012058310120703101206F
:103630008831012080B584B000AF7860114B1B68E1
:10364000002B0AD04FF0500383F31188BFF36F8F24
:10365000BFF34F8FBB6000BFFEE7FFF701FEFDF732
:1036600063FB094B1A687B681344074A1360FDF734
:103670008BFBFFF703FEF860FB6818461037BD466A
:1036800080BD00BFC4310120AC31012080B58AB0BB
:1036900000AF00237B62814B1B68002B40F0F2805F
:1036A0007F4B1B6801333B627D4A3B6A13603B6A78
:1036B000002B20D17B4B1B681B68002B0AD04FF0DE
:1036C000500383F31188BFF36F8FBFF34F8F7B607D
:1036D00000BFFEE7734B1B68FB61734B1B68714AAD
:1036E0001360714AFB691360704B1B6801336F4AAA
:1036F000136000F001FE6E4B1B683A6A9A42C0F0FC
:10370000A680684B1B681B68002B04D1684B4FF0E8
:10371000FF321A609BE0634B1B68DB68DB68BB61B0
:10372000BB695B687B613A6A7B699A4203D2604AF3
:103730007B6913608BE0BB695B693B61BB699B681C
:10374000BA69D2689A60BB69DB68BA6992685A60E4
:103750003B695A68BB6904339A4203D1BB69DA6892
:103760003B695A60BB6900225A613B691B685A1E5B
:103770003B691A60BB699B6A002B1ED0BB699B6AC0
:10378000FB60BB69DB69BA69126A9A60BB691B6A34
:10379000BA69D2695A60FB685A68BB6918339A42A1
:1037A00003D1BB691A6AFB685A60BB6900229A623E
:1037B000FB681B685A1EFB681A60BB69DB6A012242
:1037C0009A403C4B1B6813433A4A1360BB69DA6A60
:1037D000394913469B0013449B000B4404331B6878
:1037E000BB60BB69BA689A60BB689A68BB69DA60FB
:1037F000BB689B68BA6904325A60BB691A1DBB6812
:103800009A60BB69DA6A13469B0013449B002A4AFC
:103810001A44BB695A61BB69DA6A274913469B009F
:1038200013449B000B441B68591C234813469B0000
:1038300013449B0003441960BB69DA6A1F4B1B6881
:10384000DB6A9A427FF65DAF01237B6259E71B4B2F
:103850001B68DA6A184913469B0013449B000B440B
:103860001B68012B01D901237B62154B1B68002BC0
:1038700001D1FDF759F8134B1B68002B09D0012328
:103880007B6206E00E4B1B6801330D4A1360FDF7A7
:103890004BF87B6A18462837BD4680BDC4310120ED
:1038A000A03101205431012058310120B4310120D0
:1038B000BC310120A4310120C8300120C4300120D6
:1038C000AC310120B031012080B588B000AF394B58
:1038D0001B68002B03D0384B01221A6066E0364B80
:1038E00000221A60354B1B681B6BFB614FF0A53340
:1038F000BB61FB691B68BA699A4211D1FB69043349
:103900001B68BA699A420BD1FB6908331B68BA6914
:103910009A4205D1FB690C331B68BA699A4208D0F8
:10392000264B1A68254B1B68343319461046FDF7A1
:1039300002F8234B1B68FB60FB68B3FA83F3FB724E
:10394000FB7AC3F11F037B611E497A6913469B0012
:1039500013449B000B441B68002B0AD14FF050030B
:1039600083F31188BFF36F8FBFF34F8F7B6000BF6E
:10397000FEE77A6913469B0013449B00114A1344E7
:103980003B613B695B685A683B695A603B695A68AE
:103990003B6908339A4204D13B695B685A683B69CA
:1039A0005A603B695B68DB68044A136000BF2037DC
:1039B000BD4680BDC4310120B0310120C43001209A
:1039C000A4310120C830012080B584B000AF7860F8
:1039D00039607B68002B0AD14FF0500383F31188C4
:1039E000BFF36F8FBFF34F8FFB6000BFFEE7074B46
:1039F0001B68183319467868FCF7C1FE0121386846
:103A000001F0BEFB00BF1037BD4680BDC4300120B1
:103A100080B588B000AFF860B9607A60FB68002BB1
:103A20000AD14FF0500383F31188BFF36F8FBFF3B8
:103A30004F8FBB6100BFFEE71E4B1B68002B0AD1F6
:103A40004FF0500383F31188BFF36F8FBFF34F8F95
:103A50007B6100BFFEE7184B1B68BA6842F000426A
:103A60009A61FB685B68FB61134B1B68FA69DA615A
:103A7000114B1B68FA6992681A620F4B1A68FB694E
:103A80009B6818325A600C4B1B6803F11802FB69E3
:103A90009A60094B1B68FA689A62FB681B685A1C9B
:103AA000FB681A600121786801F06AFB00BF2037CB
:103AB000BD4680BDC4310120C430012080B586B030
:103AC00000AFF860B9607A60FB68002B0AD14FF054
:103AD000500383F31188BFF36F8FBFF34F8F3B61A8
:103AE00000BFFEE7FB685B687B61164B1B687A6969
:103AF000DA61144B1B687A6992681A62114B1A6872
:103B00007B699B6818325A600E4B1B6803F11802E0
:103B10007B699A600B4B1B68FA689A62FB681B68AA
:103B20005A1CFB681A607B68002B02D04FF0FF33F1
:103B3000BB607968B86801F023FB00BF1837BD4649
:103B400080BD00BFC430012080B48BB000AF78606E
:103B50007B68DB68DB683B623B6A002B0AD14FF075
:103B6000500383F31188BFF36F8FBFF34F8FFB6058
:103B700000BFFEE73B6A9B6AFB613B6ADB693A6A0E
:103B8000126A9A603B6A1B6A3A6AD2695A60FB6998
:103B90005A683B6A18339A4203D13B6A1A6AFB6936
:103BA0005A603B6A00229A62FB691B685A1EFB69D5
:103BB0001A604A4B1B68002B5ED13B6A5B697B61D4
:103BC0003B6A9B683A6AD2689A603B6ADB683A6AE9
:103BD00092685A607B695A683B6A04339A4203D1FF
:103BE0003B6ADA687B695A603B6A00225A617B69EA
:103BF0001B685A1E7B691A603B6ADB6A01229A4085
:103C0000374B1B681343364A13603B6ADA6A3549FF
:103C100013469B0013449B000B4404331B683B6119
:103C20003B6A3A699A603B699A683B6ADA603B6929
:103C30009B683A6A04325A603B6A1A1D3B699A6073
:103C40003B6ADA6A13469B0013449B00254A1A44D8
:103C50003B6A5A613B6ADA6A224913469B00134465
:103C60009B000B441B68591C1E4813469B001344C1
:103C70009B00034419601BE01B4B5B68BB613B6A04
:103C8000BA69DA61BB699A683B6A1A62BB699B6868
:103C90003A6A18325A603B6A03F11802BB699A60AB
:103CA0003B6A114A9A62104B1B6801330E4A13603B
:103CB0003B6ADA6A0D4B1B68DB6A9A4205D901231D
:103CC0007B620B4B01221A6001E000237B627B6A5E
:103CD00018462C37BD465DF8047B7047C43101207F
:103CE000A4310120C83001205C310120C430012002
:103CF000B031012080B489B000AF78603960584B92
:103D00001B68002B0AD14FF0500383F31188BFF3D7
:103D10006F8FBFF34F8FFB6000BFFEE73B6843F040
:103D200000427B681A607B68DB68FB61FB69002BE3
:103D30000AD14FF0500383F31188BFF36F8FBFF3A5
:103D40004F8FBB6000BFFEE77B681B69BB617B6870
:103D50005B687A6892689A607B689B687A68526848
:103D60005A60BB695B687A689A4203D17B689A683B
:103D7000BB695A607B6800221A61BB691B685A1EC6
:103D8000BB691A60FB695B697B61FB699B68FA69C7
:103D9000D2689A60FB69DB68FA6992685A607B694D
:103DA0005A68FB6904339A4203D1FB69DA687B697C
:103DB0005A60FB6900225A617B691B685A1E7B6945
:103DC0001A60FB69DB6A01229A40264B1B68134389
:103DD000244A1360FB69DA6A234913469B001344A3
:103DE0009B000B4404331B683B61FB693A699A6092
:103DF0003B699A68FB69DA603B699B68FA6904323F
:103E00005A60FB691A1D3B699A60FB69DA6A1346BE
:103E10009B0013449B00144A1A44FB695A61FB69D6
:103E2000DA6A114913469B0013449B000B441B683C
:103E3000591C0D4813469B0013449B000344196012
:103E4000FB69DA6A094B1B68DB6A9A4202D9084BA4
:103E500001221A6000BF2437BD465DF8047B70471D
:103E6000C4310120A4310120C8300120C430012018
:103E7000B031012080B584B000AF78607B68002B42
:103E80000AD14FF0500383F31188BFF36F8FBFF354
:103E90004F8FFB6000BFFEE7FCF746FF064B1A683A
:103EA0007B681A60054B1A687B685A60FCF76CFFE8
:103EB00000BF1037BD4680BDB4310120A0310120C4
:103EC00080B483B000AF7860064B1A687B681A60D4
:103ED000054B1A687B685A6000BF0C37BD465DF819
:103EE000047B7047B4310120A031012080B588B037
:103EF00000AF786039607B68002B0AD14FF0500327
:103F000083F31188BFF36F8FBFF34F8F3B6100BF07
:103F1000FEE73B68002B0AD14FF0500383F3118872
:103F2000BFF36F8FBFF34F8FFB6000BFFEE7FCF75F
:103F3000FBFE1F4B1B68BB617B685B68BA69D31AC9
:103F40007B613B681B68B3F1FF3F02D10023FB613B
:103F500026E07B681A68174B1B689A420AD07B6878
:103F60005B68BA699A4205D30123FB613B68002272
:103F70001A6015E03B681B687A699A420BD23B686D
:103F80001A687B69D21A3B681A607868FFF798FF55
:103F90000023FB6104E03B6800221A600123FB61FF
:103FA000FCF7F2FEFB6918462037BD4680BD00BF16
:103FB000A0310120B431012080B400AF034B0122B5
:103FC0001A6000BFBD465DF8047B7047B031012028
:103FD00080B485B000AF78607B68002B05D07B682B
:103FE000BB60BB685B6CFB6001E00023FB60FB68AF
:103FF00018461437BD465DF8047B704780B485B021
:1040000000AF786039607B68002B04D07B68FB6070
:10401000FB683A685A6400BF1437BD465DF8047BFC
:10402000704780B582B000AF786000F053F8074B5E
:104030001B68012B07D9064B4FF080521A60BFF363
:104040004F8FBFF36F8FFCF781FCEEE7C830012084
:1040500004ED00E080B582B000AF00237B600CE08F
:104060007A6813469B0013449B00124A1344184677
:10407000FCF734FB7B6801337B607B68042BEFD952
:104080000D48FCF72BFB0D48FCF728FB0C48FCF710
:1040900025FB0C48FCF722FB0B48FCF71FFB0B4BE6
:1040A000054A1A600A4B054A1A6000BF0837BD4628
:1040B00080BD00BFC83001202C31012040310120DB
:1040C0005C31012070310120883101205431012000
:1040D0005831012080B582B000AF19E0FCF724FE12
:1040E000104BDB68DB687B607B6804331846FCF7A9
:1040F0007FFB0D4B1B68013B0B4A13600B4B1B688E
:10410000013B0A4A1360FCF73FFE786800F0E4F8D0
:10411000064B1B68002BE1D100BF00BF0837BD462E
:1041200080BD00BF703101209C310120843101200D
:1041300080B586B000AFF860B9607A60FB70FB684C
:10414000002B02D12C4B1B6800E0FB687B61BB6835
:104150007A691A607B6903F13402BB685A607B6933
:10416000DA6ABB681A617B691A6BBB68DA617B69C2
:104170001A6CBB689A607B699A6CBB685A61BB68B1
:1041800000229A61FB78052B1AD01B4B1B687A69B9
:104190009A4203D1BB6800221A7318E0BB68FA7810
:1041A0001A73FB78032B12D1FFF75AF87B699B6ACD
:1041B000002B02D0BB6802221A73FFF75FF806E0FB
:1041C0007869FEF75BFC03461A46BB681A737B6886
:1041D000002B09D07B691B6B184600F061F8034681
:1041E0001A46BB681A8402E0BB6800221A8400BF2A
:1041F0001837BD4680BD00BFC430012080B58AB0ED
:1042000000AFF860B9601346FB7100237B62BB68A6
:104210001B68002B3FD0BB683B623B6A5B685A68F7
:104220003B6A5A603B6A5A683B6A08339A4204D137
:104230003B6A5B685A683B6A5A603B6A5B68DB684A
:10424000FB61BB68BB61BB695B685A68BB695A604C
:10425000BB695A68BB6908339A4204D1BB695B6881
:104260005A68BB695A60BB695B68DB687B617A6AC4
:104270001346DB0013449B001A46FB689918FB7930
:1042800001227869FFF754FF7B6A01337B627A6908
:10429000FB699A42D5D17B6A18462837BD4680BD56
:1042A00080B485B000AF78600023FB6005E07B68D8
:1042B00001337B60FB680133FB607B681B78A52BB7
:1042C000F5D0FB689B08FB60FB689BB2184614376F
:1042D000BD465DF8047B704780B582B000AF786062
:1042E0007B681B6B1846FCF739F87868FCF736F8E2
:1042F00000BF0837BD4680BD80B400AF0A4B1B68C5
:104300001B68002B04D1094B4FF0FF321A6005E007
:10431000054B1B68DB681B68044A136000BFBD4681
:104320005DF8047B704700BF54310120BC3101208F
:1043300080B483B000AF054B1B687B607B68184678
:104340000C37BD465DF8047B704700BFC4300120C8
:1043500080B483B000AF0B4B1B68002B02D101234C
:104360007B6008E0084B1B68002B02D102237B60B6
:1043700001E000237B607B6818460C37BD465DF882
:10438000047B7047A8310120C431012080B586B07C
:1043900000AF78607B683B6100237B617B68002B0A
:1043A00000F087803B69DA6A444B1B68DB6A9A42FB
:1043B00076D23B699B69002B06DB404B1B68DB6AAE
:1043C000C3F105023B699A613B6959693B69DA6A45
:1043D00013469B0013449B00394A1344994257D11A
:1043E0003B6904331846FCF703FA0346002B0AD155
:1043F0003B69DB6A012202FA03F3DA43314B1B68A3
:104400001340304A13602D4B1B68DA6A3B69DA624D
:104410003B69DB6A01229A402A4B1B681343294AF5
:1044200013603B69DA6A264913469B0013449B00DC
:104430000B4404331B68FB603B69FA689A60FB68B5
:104440009A683B69DA60FB689B683A6904325A6093
:104450003B691A1DFB689A603B69DA6A13469B0048
:1044600013449B00164A1A443B695A613B69DA6A55
:10447000134913469B0013449B000B441B68591CB3
:104480000F4813469B0013449B000344196004E04B
:104490000A4B1B68DA6A3B69DA6201237B6108E038
:1044A0003B699A6C054B1B68DB6A9A4201D2012377
:1044B0007B617B6918461837BD4680BDC43001203A
:1044C000C8300120A431012080B588B000AF7860E9
:1044D0007B68BB610023FB617B68002B00F08C8054
:1044E000484B1B68BA699A420AD04FF0500383F3D5
:1044F0001188BFF36F8FBFF34F8F3B6100BFFEE7A3
:10450000BB69DB6C002B0AD14FF0500383F3118899
:10451000BFF36F8FBFF34F8FFB6000BFFEE7BB6938
:10452000DB6C5A1EBB69DA64BB69DA6ABB699B6CD7
:104530009A4261D0BB69DB6C002B5DD1BB6904334F
:104540001846FCF755F90346002B0AD1BB69DB6A14
:10455000012202FA03F3DA432B4B1B6813402A4A69
:104560001360BB699A6CBB69DA62BB69DB6AC3F131
:104570000502BB699A61BB69DB6A01229A40224B42
:104580001B681343204A1360BB69DA6A1F4913464C
:104590009B0013449B000B4404331B687B61BB6985
:1045A0007A699A607B699A68BB69DA607B699B6803
:1045B000BA6904325A60BB691A1D7B699A60BB698B
:1045C000DA6A13469B0013449B00104A1A44BB69E5
:1045D0005A61BB69DA6A0D4913469B0013449B007C
:1045E0000B441B68591C094813469B0013449B004D
:1045F000034419600123FB61FB6918462037BD465F
:1046000080BD00BFC4300120A4310120C83001208A
:1046100080B58AB000AF786039607B683B62012367
:10462000FB617B68002B00F0A1803B6ADB6C002BF8
:104630000AD14FF0500383F31188BFF36F8FBFF39C
:104640004F8F3B6100BFFEE73B6A9B6C3A689A4222
:1046500002D93B687B6202E03B6A9B6C7B623B6AEF
:10466000DB6A7A6A9A4200F081803B6ADB6CFA6905
:104670009A427BD13F4B1B683A6A9A420AD14FF06B
:10468000500383F31188BFF36F8FBFF34F8FFB602D
:1046900000BFFEE73B6ADB6ABB613B6A7A6ADA62AB
:1046A0003B6A9B69002B04DB7B6AC3F105023B6A12
:1046B0009A613B6A5969BA6913469B0013449B008F
:1046C0002D4A1344994251D13B6A04331846FCF7F2
:1046D0008FF80346002B0AD13B6ADB6A012202FAFB
:1046E00003F3DA43254B1B681340244A13603B6AEB
:1046F000DB6A01229A40214B1B6813431F4A136057
:104700003B6ADA6A1C4913469B0013449B000B4426
:1047100004331B687B613B6A7A699A607B699A689B
:104720003B6ADA607B699B683A6A04325A603B6A8A
:104730001A1D7B699A603B6ADA6A13469B00134430
:104740009B000D4A1A443B6A5A613B6ADA6A0A497D
:1047500013469B0013449B000B441B68591C0648DE
:1047600013469B0013449B000344196000BF283785
:10477000BD4680BDC4300120C8300120A4310120D5
:1047800080B483B000AF094B1B689B697B60074B0B
:104790001B68DA6A054B1B68C2F105029A617B68E7
:1047A00018460C37BD465DF8047B7047C4300120C5
:1047B00080B400AF074B1B68002B04D0054B1B686F
:1047C000DA6C0132DA64034B1B681846BD465DF8AB
:1047D000047B7047C430012080B586B000AFF8601C
:1047E000B9607A60FB68002B0AD04FF0500383F366
:1047F0001188BFF36F8FBFF34F8F3B6100BFFEE7A0
:10480000FCF792FA264B1B68FA68143253F82230F0
:10481000002B15D1224B1A68FB6813445433012234
:104820001A707B68002B0BD00121786800F0A8FC7F
:104830001C4B4FF080521A60BFF34F8FBFF36F8F46
:10484000FCF7A2FAFCF770FA154B1B68FA681432F1
:1048500053F822307B617B69002B12D0BB68002BA0
:1048600007D00F4B1B68FA681432002143F822105E
:1048700007E00B4B1B687A69511EFA68143243F843
:104880002210074B1A68FB681344543300221A7035
:10489000FCF77AFA7B6918461837BD4680BD00BF21
:1048A000C430012004ED00E080B586B000AFF860B0
:1048B000B9607A603B60FB68002B0AD04FF0500370
:1048C00083F31188BFF36F8FBFF34F8F3B6100BF3E
:1048D000FEE7FCF729FA324B1A68FB68134454339D
:1048E0001B78DBB2022B22D02D4B1B68FA681432E6
:1048F00053F82210BA68D2431140FA68143243F8D0
:104900002210274B1A68FB681344543301221A7093
:104910003B6A002B0BD00121386A00F031FC214B9F
:104920004FF080521A60BFF34F8FBFF36F8FFCF7C9
:104930002BFAFCF7F9F93B68002B07D0184B1B68E2
:10494000FA68143253F822203B681A60144B1A6834
:10495000FB68134454331B78DBB2022B02D00023D4
:104960007B610EE00E4B1B68FA68143253F822107C
:104970007A68D2431140FA68143243F822100123B6
:104980007B61074B1A68FB681344543300221A708A
:10499000FCF7FAF97B6918461837BD4680BD00BFA1
:1049A000C430012004ED00E080B58EB000AFF860A7
:1049B000B9607A60FB7001237B63BB68002B0AD06F
:1049C0004FF0500383F31188BFF36F8FBFF34F8F06
:1049D0003B6200BFFEE7FB68002B0AD14FF050039B
:1049E00083F31188BFF36F8FBFF34F8FFB6100BF5D
:1049F000FEE7FB683B63FCF797F93B6C002B06D0A6
:104A00003B6BBA68143253F822203B6C1A603A6B45
:104A1000BB68134454331B7887F82F303A6BBB685C
:104A20001344543302221A70FB78042B3BD801A2A2
:104A300052F823F0C54A0008494A0008654A0008B0
:104A40007D4A00088B4A00083B6BBA68143253F861
:104A500022207B6842EA03013B6BBA68143243F8B8
:104A6000221032E03B6BBA68143253F82230591CE2
:104A70003B6BBA68143243F8221026E03B6BBA68ED
:104A80001432796843F822101FE097F82F30022B78
:104A900006D03B6BBA681432796843F8221014E0F0
:104AA00000237B6311E04C4B1B68002B0CD04FF0B4
:104AB000500383F31188BFF36F8FBFF34F8FBB6138
:104AC00000BFFEE700BF00E000BF97F82F30012BCA
:104AD0007BD13B6B5B69BB623B6B9B683A6BD2687B
:104AE0009A603B6BDB683A6B92685A60BB6A5A68A3
:104AF0003B6B04339A4203D13B6BDA68BB6A5A6062
:104B00003B6B00225A61BB6A1B685A1EBB6A1A6063
:104B10003B6BDB6A01229A40304B1B6813432F4AE0
:104B200013603B6BDA6A2E4913469B0013449B00CB
:104B30000B4404331B687B623B6B7A6A9A607B6A26
:104B40009A683B6BDA607B6A9B683A6B04325A6006
:104B50003B6B1A1D7B6A9A603B6BDA6A13469B00BB
:104B600013449B001E4A1A443B6B5A613B6BDA6A42
:104B70001B4913469B0013449B000B441B68591CA4
:104B8000174813469B0013449B00034419603B6B7A
:104B90009B6A002B0AD04FF0500383F31188BFF3B8
:104BA0006F8FBFF34F8F7B6100BFFEE73B6BDA6A0D
:104BB0000C4B1B68DB6A9A4207D90B4B4FF08052B3
:104BC0001A60BFF34F8FBFF36F8FFCF7DDF87B6B7D
:104BD00018463837BD4680BDA0310120A4310120E0
:104BE000C8300120C430012004ED00E080B592B04F
:104BF00000AFF860B9607A60FB7001237B64FB68EA
:104C0000002B0AD14FF0500383F31188BFF36F8F4D
:104C1000BFF34F8FBB6200BFFEE7BB68002B0AD01B
:104C20004FF0500383F31188BFF36F8FBFF34F8FA3
:104C30007B6200BFFEE7FCF74EF9FB683B64EFF3D5
:104C400011824FF0500383F31188BFF36F8FBFF3CE
:104C50004F8F3A62FB613B6AFB633B6D002B06D0D2
:104C60003B6CBA68143253F822203B6D1A603A6CE0
:104C7000BB68134454331B7887F83B303A6CBB68ED
:104C80001344543302221A70FB78042B3BD801A240
:104C900052F823F0254D0008A94C0008C54C000827
:104CA000DD4C0008EB4C00083B6CBA68143253F83A
:104CB00022207B6842EA03013B6CBA68143243F855
:104CC000221032E03B6CBA68143253F82230591C7F
:104CD0003B6CBA68143243F8221026E03B6CBA6889
:104CE0001432796843F822101FE097F83B30022B0A
:104CF00006D03B6CBA681432796843F8221014E08D
:104D000000237B6411E0604B1B68002B0CD04FF03C
:104D1000500383F31188BFF36F8FBFF34F8FBB61D5
:104D200000BFFEE700BF00E000BF97F83B30012B5B
:104D300040F09E803B6C9B6A002B0AD04FF05003E2
:104D400083F31188BFF36F8FBFF34F8F7B6100BF79
:104D5000FEE74E4B1B68002B5ED13B6C5B693B63EF
:104D60003B6C9B683A6CD2689A603B6CDB683A6C2F
:104D700092685A603B6B5A683B6C04339A4203D189
:104D80003B6CDA683B6B5A603B6C00225A613B6BB0
:104D90001B685A1E3B6B1A603B6CDB6A01229A400F
:104DA0003B4B1B6813433A4A13603B6CDA6A394940
:104DB00013469B0013449B000B4404331B68FB62A7
:104DC0003B6CFA6A9A60FB6A9A683B6CDA60FB6A31
:104DD0009B683A6C04325A603B6C1A1DFB6A9A60FD
:104DE0003B6CDA6A13469B0013449B00294A1A4421
:104DF0003B6C5A613B6CDA6A264913469B001344AC
:104E00009B000B441B68591C224813469B0013440B
:104E10009B00034419601BE01F4B5B687B633B6C8A
:104E20007A6BDA617B6B9A683B6C1A627B6B9B686E
:104E30003A6C18325A603B6C03F118027B6B9A6033
:104E40003B6C154A9A62144B1B680133124A13607B
:104E50003B6CDA6A114B1B68DB6A9A4208D97B6D9E
:104E6000002B02D07B6D01221A600D4B01221A60CB
:104E7000FB6B3B613B6983F3118800BF7B6C184679
:104E80004837BD4680BD00BFA0310120C43101209C
:104E9000A4310120C83001205C310120C430012040
:104EA000B031012080B590B000AFF860B9607A6091
:104EB000FB68002B0AD14FF0500383F31188BFF336
:104EC0006F8FBFF34F8F7B6200BFFEE7BB68002B85
:104ED0000AD04FF0500383F31188BFF36F8FBFF3F5
:104EE0004F8F3B6200BFFEE7FBF7F5FFFB68FB63FC
:104EF000EFF311824FF0500383F31188BFF36F8FEC
:104F0000BFF34F8FFA61BB61FB69BB63FA6BBB6890
:104F1000134454331B7887F83730FA6BBB6813445B
:104F2000543302221A70FB6BBA68143253F82230E1
:104F3000591CFB6BBA68143243F8221097F83730CB
:104F4000012B40F09E80FB6B9B6A002B0AD04FF038
:104F5000500383F31188BFF36F8FBFF34F8F7B61D3
:104F600000BFFEE74C4B1B68002B5ED1FB6B5B69FF
:104F7000FB62FB6B9B68FA6BD2689A60FB6BDB6829
:104F8000FA6B92685A60FB6A5A68FB6B04339A4268
:104F900003D1FB6BDA68FB6A5A60FB6B00225A6133
:104FA000FB6A1B685A1EFB6A1A60FB6BDB6A0122F4
:104FB0009A403A4B1B681343384A1360FB6BDA6A1A
:104FC000374913469B0013449B000B4404331B6872
:104FD000BB62FB6BBA6A9A60BB6A9A68FB6BDA6069
:104FE000BB6A9B68FA6B04325A60FB6B1A1DBB6A82
:104FF0009A60FB6BDA6A13469B0013449B00284AB5
:105000001A44FB6B5A61FB6BDA6A254913469B0015
:1050100013449B000B441B68591C214813469B00FA
:1050200013449B00034419601BE01E4B5B683B6309
:10503000FB6B3A6BDA613B6B9A68FB6B1A623B6BFA
:105040009B68FA6B18325A60FB6B03F118023B6BDA
:105050009A60FB6B134A9A62124B1B680133114A28
:105060001360FB6BDA6A104B1B68DB6A9A4208D943
:105070007B68002B02D07B6801221A600B4B012257
:105080001A60BB6B3B613B6983F3118800BF00BFB3
:105090004037BD4680BD00BFC4310120A43101208E
:1050A000C83001205C310120C4300120B031012022
:1050B00080B586B000AF786039603B68002B0AD0BD
:1050C0004FF0500383F31188BFF36F8FBFF34F8FFF
:1050D000FB6000BFFEE77B68002B02D1104B1B6812
:1050E00000E07B683B61FBF71FFE3A693B681344B5
:1050F00054331B78DBB2022B08D13A693B68134466
:10510000543300221A7001237B6101E000237B618C
:10511000FBF73AFE7B6918461837BD4680BD00BFD5
:10512000C430012080B586B000AFF860B9607A6005
:10513000FB68002B02D1114B1B6800E0FB687B6110
:10514000FBF7F2FD7B69BA68143253F822303B61F9
:105150007B69BA68143253F822207B68DB4302EA89
:1051600003017B69BA68143243F82210FBF70CFE86
:105170003B6918461837BD4680BD00BFC4300120CA
:1051800080B586B000AF78603960364B1B687B61B4
:10519000354B1B6804331846FBF72AFB0346002BEC
:1051A0000BD1314B1B68DB6A012202FA03F3DA43AD
:1051B0002E4B1B6813402D4A13607B68B3F1FF3FF1
:1051C00024D13B68002B21D0294B5B683B61264BE7
:1051D0001B683A699A60244B1B683A699268DA60E6
:1051E000214B1A683B699B6804325A601E4B1B684E
:1051F0001A1D3B699A601C4B1B681D4A5A611C4B67
:105200001B6801331A4A136000BF26E07A697B6885
:105210001344FB60144B1B68FA685A60FA687B6998
:105220009A4209D2134B1A680F4B1B680433194674
:105230001046FBF7A4FA10E00F4B1A680A4B1B68E4
:10524000043319461046FBF79AFA0C4B1B68FA68B0
:105250009A4202D2094AFB68136000BF1837BD4664
:1052600080BD00BFA0310120C4300120A431012045
:10527000883101205831012054310120BC310120F6
:1052800080B584B002AF00237B6000F0C5FB114BFA
:105290001B68002B0BD0104B0193022300930023BB
:1052A0004FF480620D490E48FDF738F978607B684D
:1052B000002B0AD14FF0500383F31188BFF36F8F97
:1052C000BFF34F8F3B6000BFFEE77B68184608378F
:1052D000BD4680BDF8310120FC310120205F00086F
:1052E0008556000880B588B002AFF860B9607A6072
:1052F0003B602C20FAF774FF78617B69002B0DD09E
:105300007B69002283F828207B6901933B6A009324
:105310003B687A68B968F86800F005F87B69184658
:105320001837BD4680BD80B586B000AFF860B96063
:105330007A603B60BB68002B0AD14FF0500383F3C7
:105340001188BFF36F8FBFF34F8F7B6100BFFEE704
:1053500000F062FB7B6AFA681A607B6ABA689A613D
:105360007B6A3A68DA617B6A3A6A1A627B6A04335A
:105370001846FBF7D3F97B68002B08D07B6A93F8BB
:10538000283043F00403DAB27B6A83F8282000BF98
:105390001837BD4680BD80B58AB000AFF860B960EF
:1053A0007A603B6000237B62FB68002B0AD14FF0E0
:1053B000500383F31188BFF36F8FBFF34F8F3B62AE
:1053C00000BFFEE7194B1B68002B2AD0BB687B612E
:1053D0007B68BB61FB68FB61BB68052B18DCFEF7D3
:1053E000B7FF0346022B09D1104B186807F11401CF
:1053F00000233A6BFBF779FF786212E00B4B1868D9
:1054000007F1140100230022FBF76FFF786208E028
:10541000064B186807F1140100233A68FCF764F89A
:1054200078627B6A18462837BD4680BDF831012076
:1054300080B483B000AF0B4B1B68002B0AD14FF038
:10544000500383F31188BFF36F8FBFF34F8F7B60DF
:1054500000BFFEE7034B1B6818460C37BD465DF8DE
:10546000047B7047FC31012080B485B000AF7860C8
:105470007B68FB607B68002B0AD14FF0500383F3FD
:105480001188BFF36F8FBFF34F8FBB6000BFFEE784
:10549000FB689B6918461437BD465DF8047B70476E
:1054A00080B584B000AF786039607B68FB607B6852
:1054B000002B0AD14FF0500383F31188BFF36F8F95
:1054C000BFF34F8FBB6000BFFEE7FBF72DFC3B68CF
:1054D000002B09D0FB6893F8283043F00403DAB2BC
:1054E000FB6883F8282008E0FB6893F8283023F055
:1054F0000403DAB2FB6883F82820FBF745FC00BF01
:105500001037BD4680BD80B586B000AF78607B683F
:105510003B617B68002B0AD14FF0500383F3118865
:10552000BFF36F8FBFF34F8FFB6000BFFEE7FBF74A
:10553000FBFB3B6993F8283003F00403002B02D1F6
:1055400000237B6101E001237B61FBF71DFC7B698C
:1055500018461837BD4680BD80B582B000AF786070
:105560007868FFF7D0FF034618460837BD4680BD70
:1055700080B487B000AF78607B687B617B68002B6C
:105580000AD14FF0500383F31188BFF36F8FBFF33D
:105590004F8FFB6000BFFEE77B695B683B613B6947
:1055A00018461C37BD465DF8047B704780B485B053
:1055B00000AF78607B68FB607B68002B0AD14FF0FE
:1055C000500383F31188BFF36F8FBFF34F8FBB601E
:1055D00000BFFEE7FB681B6818461437BD465DF840
:1055E000047B704780B584B000AFF860B9607A6022
:1055F00008E0FB689B69BA681344BB60FB681B6AE0
:10560000F8689847FB689A69BB68D118BB687A68E4
:10561000F86800F0DBF80346002BEAD100BF00BFBA
:105620001037BD4680BD80B584B000AF786039606A
:10563000134B1B68DB68DB68FB60FB6804331846B0
:10564000FBF7D6F8FB6893F8283003F00403002B2F
:1056500005D03A687968F868FFF7C4FF08E0FB688E
:1056600093F8283023F00103DAB2FB6883F828208E
:10567000FB681B6AF868984700BF1037BD4680BDBD
:10568000F031012080B584B000AF786007F10803E5
:10569000184600F057F8F860BB681946F86800F043
:1056A00003F800F0D5F8F1E780B584B000AF78607A
:1056B0003960FDF7D5FD07F10803184600F066F8DC
:1056C000F860BB68002B30D13B68002B0AD17A68A8
:1056D000FB689A4206D8FDF7D1FDF9687868FFF7B4
:1056E000A2FF24E03B68002B08D0134B1B681B680B
:1056F000002B01D1012300E000233B600F4B186811
:105700007A68FB68D31A3A681946FCF7D3FEFDF7AE
:10571000B5FD0346002B0AD1094B4FF080521A60A9
:10572000BFF34F8FBFF36F8F01E0FDF7A7FD00BF01
:105730001037BD4680BD00BFF4310120F831012093
:1057400004ED00E080B485B000AF78600E4B1B68BC
:105750001B68002B01D1012200E000227B681A6047
:105760007B681B68002B05D1074B1B68DB681B6837
:10577000FB6001E00023FB60FB6818461437BD4660
:105780005DF8047B704700BFF031012080B584B024
:1057900000AF7860FDF76EFEF8600B4B1B68FA688F
:1057A0009A4205D200F012F97B6801221A6002E0E9
:1057B0007B6800221A60044AFB681360FB68184685
:1057C0001037BD4680BD00BF0032012080B586B0D5
:1057D00000AFF860B9607A603B6000237B61FB68D2
:1057E000BA685A60FB68FA681A61BA687B689A42BC
:1057F00012D87A683B68D21AFB689B699A4202D336
:1058000001237B611BE0104B1A68FB6804331946C7
:105810001046FAF7B4FF12E07A683B689A4206D263
:10582000BA683B689A4202D301237B6107E0074BC9
:105830001A68FB68043319461046FAF7A0FF7B6923
:1058400018461837BD4680BDF4310120F0310120E3
:1058500080B588B000AFA6E0BB68002BC0F2A28084
:105860003B69FB61FB695B69002B04D0FB69043376
:105870001846FAF7BDFF3B1D1846FFF787FFB861D2
:10588000BB68013B082B00F28E8001A252F823F086
:10589000B5580008B55800081D59000831590008CE
:1058A0007B590008B5580008B55800081D59000874
:1058B00031590008FB6993F8283043F00103DAB24C
:1058C000FB6983F82820FA68FB699B69D118FB689B
:1058D000BA69F869FFF77AFF0346002B63D0FB69CA
:1058E00093F8283003F00403002B09D0FA68FB6911
:1058F0009B691344BA691946F869FFF773FE08E01B
:10590000FB6993F8283023F00103DAB2FB6983F8CE
:105910002820FB691B6AF869984744E0FB6993F803
:10592000283023F00103DAB2FB6983F828203AE03B
:10593000FB6993F8283043F00103DAB2FB6983F87E
:105940002820FA68FB699A61FB699B69002B0AD1E0
:105950004FF0500383F31188BFF36F8FBFF34F8F66
:105960007B6100BFFEE7FB699A69BB69D118BB691F
:10597000BA69F869FFF72AFF15E0FB6993F8283048
:1059800003F00203002B03D1F869FAF7E7FC0AE001
:10599000FB6993F8283023F00103DAB2FB6983F83E
:1059A000282000E000BF084B1B6807F10801002217
:1059B0001846FBF7EFFE0346002B7FF44DAF00BF08
:1059C00000BF2037BD4680BDF831012080B582B0D0
:1059D00000AF09E00E4B1B68DB681B683B604FF0B3
:1059E000FF313868FFF71FFE094B1B681B68002B4F
:1059F000F0D1074B1B687B60064B1B68044A1360A1
:105A0000044A7B68136000BF0837BD4680BD00BFF5
:105A1000F0310120F431012080B500AFFBF784F9AB
:105A2000124B1B68002B1DD11148FAF757FE114885
:105A3000FAF754FE104B0E4A1A60104B0D4A1A60CA
:105A400000220C210A20FBF715FB0346074A1360CE
:105A5000064B1B68002B05D0044B1B6808491846F1
:105A6000FCF76EFCFBF790F900BF80BDF831012018
:105A7000C8310120DC310120F0310120F431012056
:105A8000285F000880B586B000AF78607B683B6116
:105A90007B68002B0AD14FF0500383F31188BFF3CA
:105AA0006F8FBFF34F8FFB6000BFFEE7FBF73CF942
:105AB0003B6993F8283003F00103002B02D1002347
:105AC0007B6101E001237B61FBF75EF97B6918468E
:105AD0001837BD4680BD80B586B000AF78607B6862
